{
  "contractName": "OwnedSet",
  "abi": [
    {
      "constant": true,
      "inputs": [],
      "name": "recentBlocks",
      "outputs": [
        {
          "name": "",
          "type": "uint256"
        }
      ],
      "payable": false,
      "stateMutability": "view",
      "type": "function"
    },
    {
      "constant": true,
      "inputs": [],
      "name": "getPending",
      "outputs": [
        {
          "name": "",
          "type": "address[]"
        }
      ],
      "payable": false,
      "stateMutability": "view",
      "type": "function"
    },
    {
      "constant": false,
      "inputs": [
        {
          "name": "_validator",
          "type": "address"
        }
      ],
      "name": "removeValidator",
      "outputs": [],
      "payable": false,
      "stateMutability": "nonpayable",
      "type": "function"
    },
    {
      "constant": false,
      "inputs": [
        {
          "name": "_validator",
          "type": "address"
        }
      ],
      "name": "addValidator",
      "outputs": [],
      "payable": false,
      "stateMutability": "nonpayable",
      "type": "function"
    },
    {
      "constant": false,
      "inputs": [],
      "name": "renounceOwnership",
      "outputs": [],
      "payable": false,
      "stateMutability": "nonpayable",
      "type": "function"
    },
    {
      "constant": false,
      "inputs": [
        {
          "name": "_recentBlocks",
          "type": "uint256"
        }
      ],
      "name": "setRecentBlocks",
      "outputs": [],
      "payable": false,
      "stateMutability": "nonpayable",
      "type": "function"
    },
    {
      "constant": true,
      "inputs": [],
      "name": "owner",
      "outputs": [
        {
          "name": "",
          "type": "address"
        }
      ],
      "payable": false,
      "stateMutability": "view",
      "type": "function"
    },
    {
      "constant": true,
      "inputs": [],
      "name": "isOwner",
      "outputs": [
        {
          "name": "",
          "type": "bool"
        }
      ],
      "payable": false,
      "stateMutability": "view",
      "type": "function"
    },
    {
      "constant": true,
      "inputs": [],
      "name": "finalized",
      "outputs": [
        {
          "name": "",
          "type": "bool"
        }
      ],
      "payable": false,
      "stateMutability": "view",
      "type": "function"
    },
    {
      "constant": true,
      "inputs": [],
      "name": "getValidators",
      "outputs": [
        {
          "name": "",
          "type": "address[]"
        }
      ],
      "payable": false,
      "stateMutability": "view",
      "type": "function"
    },
    {
      "constant": true,
      "inputs": [],
      "name": "UTILITY_CONTRACT",
      "outputs": [
        {
          "name": "",
          "type": "address"
        }
      ],
      "payable": false,
      "stateMutability": "view",
      "type": "function"
    },
    {
      "constant": false,
      "inputs": [
        {
          "name": "newOwner",
          "type": "address"
        }
      ],
      "name": "transferOwnership",
      "outputs": [],
      "payable": false,
      "stateMutability": "nonpayable",
      "type": "function"
    },
    {
      "inputs": [
        {
          "name": "_initial",
          "type": "address[]"
        }
      ],
      "payable": false,
      "stateMutability": "nonpayable",
      "type": "constructor"
    },
    {
      "anonymous": false,
      "inputs": [
        {
          "indexed": false,
          "name": "currentSet",
          "type": "address[]"
        }
      ],
      "name": "ChangeFinalized",
      "type": "event"
    },
    {
      "anonymous": false,
      "inputs": [
        {
          "indexed": true,
          "name": "reporter",
          "type": "address"
        },
        {
          "indexed": true,
          "name": "reported",
          "type": "address"
        },
        {
          "indexed": true,
          "name": "malicious",
          "type": "bool"
        },
        {
          "indexed": false,
          "name": "_proof",
          "type": "bytes"
        }
      ],
      "name": "Report",
      "type": "event"
    },
    {
      "anonymous": false,
      "inputs": [
        {
          "indexed": true,
          "name": "_parentHash",
          "type": "bytes32"
        },
        {
          "indexed": false,
          "name": "_newSet",
          "type": "address[]"
        }
      ],
      "name": "InitiateChange",
      "type": "event"
    },
    {
      "anonymous": false,
      "inputs": [
        {
          "indexed": true,
          "name": "previousOwner",
          "type": "address"
        },
        {
          "indexed": true,
          "name": "newOwner",
          "type": "address"
        }
      ],
      "name": "OwnershipTransferred",
      "type": "event"
    },
    {
      "constant": false,
      "inputs": [],
      "name": "finalizeChange",
      "outputs": [],
      "payable": false,
      "stateMutability": "nonpayable",
      "type": "function"
    },
    {
      "constant": false,
      "inputs": [
        {
          "name": "_validator",
          "type": "address"
        },
        {
          "name": "_blockNumber",
          "type": "uint256"
        }
      ],
      "name": "reportBenign",
      "outputs": [],
      "payable": false,
      "stateMutability": "nonpayable",
      "type": "function"
    },
    {
      "constant": false,
      "inputs": [
        {
          "name": "_validator",
          "type": "address"
        },
        {
          "name": "_blockNumber",
          "type": "uint256"
        },
        {
          "name": "_proof",
          "type": "bytes"
        }
      ],
      "name": "reportMalicious",
      "outputs": [],
      "payable": false,
      "stateMutability": "nonpayable",
      "type": "function"
    }
  ],
  "bytecode": "0x608060405260146001553480156200001657600080fd5b50604051620022f8380380620022f8833981018060405260208110156200003c57600080fd5b8101908080516401000000008111156200005557600080fd5b828101905060208101848111156200006c57600080fd5b81518560208202830111640100000000821117156200008a57600080fd5b505092919050505080600073ffffffffffffffffffffffffffffffffffffffff163373ffffffffffffffffffffffffffffffffffffffff161415620001225772bd138abd70e2f00903268f3db08f2d25677c9e6000806101000a81548173ffffffffffffffffffffffffffffffffffffffff021916908373ffffffffffffffffffffffffffffffffffffffff16021790555062000163565b336000806101000a81548173ffffffffffffffffffffffffffffffffffffffff021916908373ffffffffffffffffffffffffffffffffffffffff1602179055505b6000809054906101000a900473ffffffffffffffffffffffffffffffffffffffff1673ffffffffffffffffffffffffffffffffffffffff16600073ffffffffffffffffffffffffffffffffffffffff167f8be0079c531659141344cd1fd0a4f28419497f9722a3daafe3b4186f6b6457e060405160405180910390a38060039080519060200190620001f792919062000306565b5060008090505b8151811015620002e85760016004600084848151811015156200021d57fe5b9060200190602002015173ffffffffffffffffffffffffffffffffffffffff1673ffffffffffffffffffffffffffffffffffffffff16815260200190815260200160002060000160006101000a81548160ff021916908315150217905550806004600084848151811015156200028f57fe5b9060200190602002015173ffffffffffffffffffffffffffffffffffffffff1673ffffffffffffffffffffffffffffffffffffffff168152602001908152602001600020600101819055508080600101915050620001fe565b5060036002908054620002fd92919062000395565b50505062000432565b82805482825590600052602060002090810192821562000382579160200282015b82811115620003815782518260006101000a81548173ffffffffffffffffffffffffffffffffffffffff021916908373ffffffffffffffffffffffffffffffffffffffff1602179055509160200191906001019062000327565b5b509050620003919190620003ec565b5090565b828054828255906000526020600020908101928215620003d95760005260206000209182015b82811115620003d8578254825591600101919060010190620003bb565b5b509050620003e89190620003ec565b5090565b6200042f91905b808211156200042b57600081816101000a81549073ffffffffffffffffffffffffffffffffffffffff021916905550600101620003f3565b5090565b90565b611eb680620004426000396000f3fe608060405234801561001057600080fd5b5060043610610112576000357c0100000000000000000000000000000000000000000000000000000000900480638da5cb5b116100b4578063bf7107e011610083578063bf7107e01461034b578063c476dd4014610395578063d69f13bb14610438578063f2fde38b1461048657610112565b80638da5cb5b1461025e5780638f32d59b146102a8578063b3f05b97146102ca578063b7ab4db5146102ec57610112565b80634d238c8e116100f05780634d238c8e146101d8578063715018a61461021c57806375286211146102265780638c90ac071461023057610112565b80630c8578051461011757806311ae9ed21461013557806340a141ff14610194575b600080fd5b61011f6104ca565b6040518082815260200191505060405180910390f35b61013d6104d0565b6040518080602001828103825283818151815260200191508051906020019060200280838360005b83811015610180578082015181840152602081019050610165565b505050509050019250505060405180910390f35b6101d6600480360360208110156101aa57600080fd5b81019080803573ffffffffffffffffffffffffffffffffffffffff16906020019092919050505061055e565b005b61021a600480360360208110156101ee57600080fd5b81019080803573ffffffffffffffffffffffffffffffffffffffff169060200190929190505050610a82565b005b610224610dcd565b005b61022e610f08565b005b61025c6004803603602081101561024657600080fd5b8101908080359060200190929190505050610f8e565b005b610266611014565b604051808273ffffffffffffffffffffffffffffffffffffffff1673ffffffffffffffffffffffffffffffffffffffff16815260200191505060405180910390f35b6102b061103d565b604051808215151515815260200191505060405180910390f35b6102d2611094565b604051808215151515815260200191505060405180910390f35b6102f46110a7565b6040518080602001828103825283818151815260200191508051906020019060200280838360005b8381101561033757808201518184015260208101905061031c565b505050509050019250505060405180910390f35b610353611135565b604051808273ffffffffffffffffffffffffffffffffffffffff1673ffffffffffffffffffffffffffffffffffffffff16815260200191505060405180910390f35b610436600480360360608110156103ab57600080fd5b81019080803573ffffffffffffffffffffffffffffffffffffffff16906020019092919080359060200190929190803590602001906401000000008111156103f257600080fd5b82018360208201111561040457600080fd5b8035906020019184600183028401116401000000008311171561042657600080fd5b909192939192939050505061113a565b005b6104846004803603604081101561044e57600080fd5b81019080803573ffffffffffffffffffffffffffffffffffffffff16906020019092919080359060200190929190505050611190565b005b6104c86004803603602081101561049c57600080fd5b81019080803573ffffffffffffffffffffffffffffffffffffffff16906020019092919050505061119f565b005b60015481565b6060600380548060200260200160405190810160405280929190818152602001828054801561055457602002820191906000526020600020905b8160009054906101000a900473ffffffffffffffffffffffffffffffffffffffff1673ffffffffffffffffffffffffffffffffffffffff168152602001906001019080831161050a575b5050505050905090565b61056661103d565b15156105da576040517f08c379a00000000000000000000000000000000000000000000000000000000081526004018080602001828103825260208152602001807f4f776e61626c653a2063616c6c6572206973206e6f7420746865206f776e657281525060200191505060405180910390fd5b806000600460008373ffffffffffffffffffffffffffffffffffffffff1673ffffffffffffffffffffffffffffffffffffffff16815260200190815260200160002060000160009054906101000a900460ff1690506000600460008473ffffffffffffffffffffffffffffffffffffffff1673ffffffffffffffffffffffffffffffffffffffff168152602001908152602001600020600101549050818015610687575060028054905081105b80156106f757508273ffffffffffffffffffffffffffffffffffffffff166002828154811015156106b457fe5b9060005260206000200160009054906101000a900473ffffffffffffffffffffffffffffffffffffffff1673ffffffffffffffffffffffffffffffffffffffff16145b151561076b576040517f08c379a000000000000000000000000000000000000000000000000000000000815260040180806020018281038252600f8152602001807f4e6f7420612076616c696461746f72000000000000000000000000000000000081525060200191505060405180910390fd5b6000600460008673ffffffffffffffffffffffffffffffffffffffff1673ffffffffffffffffffffffffffffffffffffffff16815260200190815260200160002060010154905060036001600380549050038154811015156107c957fe5b9060005260206000200160009054906101000a900473ffffffffffffffffffffffffffffffffffffffff1660038281548110151561080357fe5b9060005260206000200160006101000a81548173ffffffffffffffffffffffffffffffffffffffff021916908373ffffffffffffffffffffffffffffffffffffffff160217905550806004600060038481548110151561085f57fe5b9060005260206000200160009054906101000a900473ffffffffffffffffffffffffffffffffffffffff1673ffffffffffffffffffffffffffffffffffffffff1673ffffffffffffffffffffffffffffffffffffffff1681526020019081526020016000206001018190555060036001600380549050038154811015156108e257fe5b9060005260206000200160006101000a81549073ffffffffffffffffffffffffffffffffffffffff021916905560038054809190600190036109249190611d7e565b50600460008673ffffffffffffffffffffffffffffffffffffffff1673ffffffffffffffffffffffffffffffffffffffff168152602001908152602001600020600080820160006101000a81549060ff02191690556001820160009055505060008060146101000a81548160ff0219169083151502179055506000604290508073ffffffffffffffffffffffffffffffffffffffff16638dd86e01876040518263ffffffff167c0100000000000000000000000000000000000000000000000000000000028152600401808273ffffffffffffffffffffffffffffffffffffffff1673ffffffffffffffffffffffffffffffffffffffff168152602001915050602060405180830381600087803b158015610a3e57600080fd5b505af1158015610a52573d6000803e3d6000fd5b505050506040513d6020811015610a6857600080fd5b810190808051906020019092919050505050505050505050565b610a8a61103d565b1515610afe576040517f08c379a00000000000000000000000000000000000000000000000000000000081526004018080602001828103825260208152602001807f4f776e61626c653a2063616c6c6572206973206e6f7420746865206f776e657281525060200191505060405180910390fd5b80600460008273ffffffffffffffffffffffffffffffffffffffff1673ffffffffffffffffffffffffffffffffffffffff16815260200190815260200160002060000160009054906101000a900460ff16151515610bc4576040517f08c379a000000000000000000000000000000000000000000000000000000000815260040180806020018281038252600e8152602001807f497320612076616c696461746f7200000000000000000000000000000000000081525060200191505060405180910390fd5b6001600460008473ffffffffffffffffffffffffffffffffffffffff1673ffffffffffffffffffffffffffffffffffffffff16815260200190815260200160002060000160006101000a81548160ff021916908315150217905550600380549050600460008473ffffffffffffffffffffffffffffffffffffffff1673ffffffffffffffffffffffffffffffffffffffff1681526020019081526020016000206001018190555060038290806001815401808255809150509060018203906000526020600020016000909192909190916101000a81548173ffffffffffffffffffffffffffffffffffffffff021916908373ffffffffffffffffffffffffffffffffffffffff1602179055505060008060146101000a81548160ff0219169083151502179055506000604290508073ffffffffffffffffffffffffffffffffffffffff166304fc6dce846040518263ffffffff167c0100000000000000000000000000000000000000000000000000000000028152600401808273ffffffffffffffffffffffffffffffffffffffff1673ffffffffffffffffffffffffffffffffffffffff168152602001915050602060405180830381600087803b158015610d8c57600080fd5b505af1158015610da0573d6000803e3d6000fd5b505050506040513d6020811015610db657600080fd5b810190808051906020019092919050505050505050565b610dd561103d565b1515610e49576040517f08c379a00000000000000000000000000000000000000000000000000000000081526004018080602001828103825260208152602001807f4f776e61626c653a2063616c6c6572206973206e6f7420746865206f776e657281525060200191505060405180910390fd5b600073ffffffffffffffffffffffffffffffffffffffff166000809054906101000a900473ffffffffffffffffffffffffffffffffffffffff1673ffffffffffffffffffffffffffffffffffffffff167f8be0079c531659141344cd1fd0a4f28419497f9722a3daafe3b4186f6b6457e060405160405180910390a360008060006101000a81548173ffffffffffffffffffffffffffffffffffffffff021916908373ffffffffffffffffffffffffffffffffffffffff160217905550565b610f1061103d565b1515610f84576040517f08c379a00000000000000000000000000000000000000000000000000000000081526004018080602001828103825260208152602001807f4f776e61626c653a2063616c6c6572206973206e6f7420746865206f776e657281525060200191505060405180910390fd5b610f8c611227565b565b610f9661103d565b151561100a576040517f08c379a00000000000000000000000000000000000000000000000000000000081526004018080602001828103825260208152602001807f4f776e61626c653a2063616c6c6572206973206e6f7420746865206f776e657281525060200191505060405180910390fd5b8060018190555050565b60008060009054906101000a900473ffffffffffffffffffffffffffffffffffffffff16905090565b60008060009054906101000a900473ffffffffffffffffffffffffffffffffffffffff1673ffffffffffffffffffffffffffffffffffffffff163373ffffffffffffffffffffffffffffffffffffffff1614905090565b600060149054906101000a900460ff1681565b6060600280548060200260200160405190810160405280929190818152602001828054801561112b57602002820191906000526020600020905b8160009054906101000a900473ffffffffffffffffffffffffffffffffffffffff1673ffffffffffffffffffffffffffffffffffffffff16815260200190600101908083116110e1575b5050505050905090565b604281565b61118a33858585858080601f016020809104026020016040519081016040528093929190818152602001838380828437600081840152601f19601f82011690508083019250505050505050611388565b50505050565b61119b33838361180d565b5050565b6111a761103d565b151561121b576040517f08c379a00000000000000000000000000000000000000000000000000000000081526004018080602001828103825260208152602001807f4f776e61626c653a2063616c6c6572206973206e6f7420746865206f776e657281525060200191505060405180910390fd5b61122481611c38565b50565b600060149054906101000a900460ff161515156112ac576040517f08c379a000000000000000000000000000000000000000000000000000000000815260040180806020018281038252600c8152602001807f49732066696e616c697a6564000000000000000000000000000000000000000081525060200191505060405180910390fd5b600360029080546112be929190611daa565b506001600060146101000a81548160ff0219169083151502179055507f8564cd629b15f47dc310d45bcbfc9bcf5420b0d51bf0659a16c67f91d276325360026040518080602001828103825283818154815260200191508054801561137857602002820191906000526020600020905b8160009054906101000a900473ffffffffffffffffffffffffffffffffffffffff1673ffffffffffffffffffffffffffffffffffffffff168152602001906001019080831161132e575b50509250505060405180910390a1565b836000600460008373ffffffffffffffffffffffffffffffffffffffff1673ffffffffffffffffffffffffffffffffffffffff16815260200190815260200160002060000160009054906101000a900460ff1690506000600460008473ffffffffffffffffffffffffffffffffffffffff1673ffffffffffffffffffffffffffffffffffffffff168152602001908152602001600020600101549050818015611435575060028054905081105b80156114a557508273ffffffffffffffffffffffffffffffffffffffff1660028281548110151561146257fe5b9060005260206000200160009054906101000a900473ffffffffffffffffffffffffffffffffffffffff1673ffffffffffffffffffffffffffffffffffffffff16145b1515611519576040517f08c379a000000000000000000000000000000000000000000000000000000000815260040180806020018281038252600f8152602001807f4e6f7420612076616c696461746f72000000000000000000000000000000000081525060200191505060405180910390fd5b856000600460008373ffffffffffffffffffffffffffffffffffffffff1673ffffffffffffffffffffffffffffffffffffffff16815260200190815260200160002060000160009054906101000a900460ff1690506000600460008473ffffffffffffffffffffffffffffffffffffffff1673ffffffffffffffffffffffffffffffffffffffff1681526020019081526020016000206001015490508180156115c6575060028054905081105b801561163657508273ffffffffffffffffffffffffffffffffffffffff166002828154811015156115f357fe5b9060005260206000200160009054906101000a900473ffffffffffffffffffffffffffffffffffffffff1673ffffffffffffffffffffffffffffffffffffffff16145b15156116aa576040517f08c379a000000000000000000000000000000000000000000000000000000000815260040180806020018281038252600f8152602001807f4e6f7420612076616c696461746f72000000000000000000000000000000000081525060200191505060405180910390fd5b87600154810143111580156116be57504381105b1515611732576040517f08c379a000000000000000000000000000000000000000000000000000000000815260040180806020018281038252600d8152602001807f4973206e6f7420726563656e740000000000000000000000000000000000000081525060200191505060405180910390fd5b600115158a73ffffffffffffffffffffffffffffffffffffffff168c73ffffffffffffffffffffffffffffffffffffffff167fcd68fdcbf7edba5b8104d12e8a8063e56f6304c339b41b56ff9359640553198d8b6040518080602001828103825283818151815260200191508051906020019080838360005b838110156117c65780820151818401526020810190506117ab565b50505050905090810190601f1680156117f35780820380516001836020036101000a031916815260200191505b509250505060405180910390a45050505050505050505050565b826000600460008373ffffffffffffffffffffffffffffffffffffffff1673ffffffffffffffffffffffffffffffffffffffff16815260200190815260200160002060000160009054906101000a900460ff1690506000600460008473ffffffffffffffffffffffffffffffffffffffff1673ffffffffffffffffffffffffffffffffffffffff1681526020019081526020016000206001015490508180156118ba575060028054905081105b801561192a57508273ffffffffffffffffffffffffffffffffffffffff166002828154811015156118e757fe5b9060005260206000200160009054906101000a900473ffffffffffffffffffffffffffffffffffffffff1673ffffffffffffffffffffffffffffffffffffffff16145b151561199e576040517f08c379a000000000000000000000000000000000000000000000000000000000815260040180806020018281038252600f8152602001807f4e6f7420612076616c696461746f72000000000000000000000000000000000081525060200191505060405180910390fd5b846000600460008373ffffffffffffffffffffffffffffffffffffffff1673ffffffffffffffffffffffffffffffffffffffff16815260200190815260200160002060000160009054906101000a900460ff1690506000600460008473ffffffffffffffffffffffffffffffffffffffff1673ffffffffffffffffffffffffffffffffffffffff168152602001908152602001600020600101549050818015611a4b575060028054905081105b8015611abb57508273ffffffffffffffffffffffffffffffffffffffff16600282815481101515611a7857fe5b9060005260206000200160009054906101000a900473ffffffffffffffffffffffffffffffffffffffff1673ffffffffffffffffffffffffffffffffffffffff16145b1515611b2f576040517f08c379a000000000000000000000000000000000000000000000000000000000815260040180806020018281038252600f8152602001807f4e6f7420612076616c696461746f72000000000000000000000000000000000081525060200191505060405180910390fd5b8660015481014311158015611b4357504381105b1515611bb7576040517f08c379a000000000000000000000000000000000000000000000000000000000815260040180806020018281038252600d8152602001807f4973206e6f7420726563656e740000000000000000000000000000000000000081525060200191505060405180910390fd5b600015158973ffffffffffffffffffffffffffffffffffffffff168b73ffffffffffffffffffffffffffffffffffffffff167fcd68fdcbf7edba5b8104d12e8a8063e56f6304c339b41b56ff9359640553198d604051808060200182810382526000815260200160200191505060405180910390a450505050505050505050565b600073ffffffffffffffffffffffffffffffffffffffff168173ffffffffffffffffffffffffffffffffffffffff1614151515611cc0576040517f08c379a0000000000000000000000000000000000000000000000000000000008152600401808060200182810382526026815260200180611e656026913960400191505060405180910390fd5b8073ffffffffffffffffffffffffffffffffffffffff166000809054906101000a900473ffffffffffffffffffffffffffffffffffffffff1673ffffffffffffffffffffffffffffffffffffffff167f8be0079c531659141344cd1fd0a4f28419497f9722a3daafe3b4186f6b6457e060405160405180910390a3806000806101000a81548173ffffffffffffffffffffffffffffffffffffffff021916908373ffffffffffffffffffffffffffffffffffffffff16021790555050565b815481835581811115611da557818360005260206000209182019101611da49190611dfc565b5b505050565b828054828255906000526020600020908101928215611deb5760005260206000209182015b82811115611dea578254825591600101919060010190611dcf565b5b509050611df89190611e21565b5090565b611e1e91905b80821115611e1a576000816000905550600101611e02565b5090565b90565b611e6191905b80821115611e5d57600081816101000a81549073ffffffffffffffffffffffffffffffffffffffff021916905550600101611e27565b5090565b9056fe4f776e61626c653a206e6577206f776e657220697320746865207a65726f2061646472657373a165627a7a7230582005f9beadddf2c77a1c81186d4f05b6b0b21890cfbfc0040e6b231f1a09505a5e0029",
  "source": "pragma solidity ^0.5.0;\n\nimport \"./BaseOwnedSet.sol\";\n\n\n\n// An owned validator set contract where the owner can add or remove validators.\ncontract OwnedSet is BaseOwnedSet {\n  // solium-disable-next-line\n  constructor(address[] memory _initial) BaseOwnedSet(_initial) public {}\n\n  // Called when an initiated change reaches finality and is activated.\n  function finalizeChange()\n    external\n    onlyOwner\n  {\n    baseFinalizeChange();\n  }\n\n  // MISBEHAVIOUR HANDLING\n\n  function reportBenign(address _validator, uint256 _blockNumber)\n    external\n  {\n    baseReportBenign(msg.sender, _validator, _blockNumber);\n  }\n\n  function reportMalicious(address _validator, uint256 _blockNumber, bytes calldata _proof)\n    external\n  {\n    baseReportMalicious(\n      msg.sender,\n      _validator,\n      _blockNumber,\n      _proof\n    );\n  }\n}\n",
  "sourcePath": "/Users/uhsiddiq/Documents/DET_Script/decentralized-energy-trading/contracts/OwnedSet.sol",
  "compiler": {
    "name": "solc",
    "version": "0.5.2+commit.1df8f40c.Emscripten.clang"
  },
  "schemaVersion": "3.0.19",
  "updatedAt": "2020-02-18T14:38:00.670Z",
  "devdoc": {
    "methods": {
      "isOwner()": {
        "return": "true if `msg.sender` is the owner of the contract."
      },
      "owner()": {
        "return": "the address of the owner."
      },
      "renounceOwnership()": {
        "details": "Allows the current owner to relinquish control of the contract. It will not be possible to call the functions with the `onlyOwner` modifier anymore."
      },
      "transferOwnership(address)": {
        "details": "Allows the current owner to transfer control of the contract to a newOwner.",
        "params": {
          "newOwner": "The address to transfer ownership to."
        }
      }
    }
  },
  "userdoc": {
    "methods": {
      "renounceOwnership()": {
        "notice": "Renouncing ownership will leave the contract without an owner, thereby removing any functionality that is only available to the owner."
      }
    }
  }
}