{
  "contractName": "dUtility",
  "abi": [
    {
      "constant": false,
      "inputs": [],
      "name": "close",
      "outputs": [],
      "payable": false,
      "stateMutability": "nonpayable",
      "type": "function"
    },
    {
      "constant": false,
      "inputs": [],
      "name": "renounceOwnership",
      "outputs": [],
      "payable": false,
      "stateMutability": "nonpayable",
      "type": "function"
    },
    {
      "constant": true,
      "inputs": [],
      "name": "owner",
      "outputs": [
        {
          "name": "",
          "type": "address"
        }
      ],
      "payable": false,
      "stateMutability": "view",
      "type": "function"
    },
    {
      "constant": true,
      "inputs": [],
      "name": "isOwner",
      "outputs": [
        {
          "name": "",
          "type": "bool"
        }
      ],
      "payable": false,
      "stateMutability": "view",
      "type": "function"
    },
    {
      "constant": true,
      "inputs": [
        {
          "name": "",
          "type": "uint256"
        }
      ],
      "name": "transfers",
      "outputs": [
        {
          "name": "",
          "type": "uint256"
        }
      ],
      "payable": false,
      "stateMutability": "view",
      "type": "function"
    },
    {
      "constant": false,
      "inputs": [
        {
          "name": "newOwner",
          "type": "address"
        }
      ],
      "name": "transferOwnership",
      "outputs": [],
      "payable": false,
      "stateMutability": "nonpayable",
      "type": "function"
    },
    {
      "anonymous": false,
      "inputs": [
        {
          "indexed": true,
          "name": "household",
          "type": "address"
        }
      ],
      "name": "NewHousehold",
      "type": "event"
    },
    {
      "anonymous": false,
      "inputs": [],
      "name": "NettingSuccess",
      "type": "event"
    },
    {
      "anonymous": false,
      "inputs": [],
      "name": "CheckHashesSuccess",
      "type": "event"
    },
    {
      "anonymous": false,
      "inputs": [
        {
          "indexed": true,
          "name": "household",
          "type": "address"
        },
        {
          "indexed": false,
          "name": "newDeltaEnergy",
          "type": "bytes32"
        }
      ],
      "name": "RenewableEnergyChanged",
      "type": "event"
    },
    {
      "anonymous": false,
      "inputs": [
        {
          "indexed": true,
          "name": "household",
          "type": "address"
        },
        {
          "indexed": false,
          "name": "newDeltaEnergy",
          "type": "bytes32"
        }
      ],
      "name": "NonRenewableEnergyChanged",
      "type": "event"
    },
    {
      "anonymous": false,
      "inputs": [
        {
          "indexed": true,
          "name": "previousOwner",
          "type": "address"
        },
        {
          "indexed": true,
          "name": "newOwner",
          "type": "address"
        }
      ],
      "name": "OwnershipTransferred",
      "type": "event"
    },
    {
      "constant": false,
      "inputs": [
        {
          "name": "_household",
          "type": "address"
        }
      ],
      "name": "addHousehold",
      "outputs": [
        {
          "name": "",
          "type": "bool"
        }
      ],
      "payable": false,
      "stateMutability": "nonpayable",
      "type": "function"
    },
    {
      "constant": true,
      "inputs": [
        {
          "name": "_household",
          "type": "address"
        }
      ],
      "name": "getHousehold",
      "outputs": [
        {
          "name": "",
          "type": "bool"
        },
        {
          "name": "",
          "type": "bytes32"
        },
        {
          "name": "",
          "type": "bytes32"
        }
      ],
      "payable": false,
      "stateMutability": "view",
      "type": "function"
    },
    {
      "constant": true,
      "inputs": [
        {
          "name": "_household",
          "type": "address"
        }
      ],
      "name": "getHouseholdAfterNettingHash",
      "outputs": [
        {
          "name": "",
          "type": "bytes32"
        }
      ],
      "payable": false,
      "stateMutability": "view",
      "type": "function"
    },
    {
      "constant": false,
      "inputs": [
        {
          "name": "_household",
          "type": "address"
        }
      ],
      "name": "removeHousehold",
      "outputs": [
        {
          "name": "",
          "type": "bool"
        }
      ],
      "payable": false,
      "stateMutability": "nonpayable",
      "type": "function"
    },
    {
      "constant": false,
      "inputs": [
        {
          "name": "_verifier",
          "type": "address"
        }
      ],
      "name": "setVerifier",
      "outputs": [
        {
          "name": "",
          "type": "bool"
        }
      ],
      "payable": false,
      "stateMutability": "nonpayable",
      "type": "function"
    },
    {
      "constant": false,
      "inputs": [
        {
          "name": "_households",
          "type": "address[]"
        },
        {
          "name": "_a",
          "type": "uint256[2]"
        },
        {
          "name": "_b",
          "type": "uint256[2][2]"
        },
        {
          "name": "_c",
          "type": "uint256[2]"
        },
        {
          "name": "_input",
          "type": "uint256[12]"
        }
      ],
      "name": "checkNetting",
      "outputs": [
        {
          "name": "",
          "type": "bool"
        }
      ],
      "payable": false,
      "stateMutability": "nonpayable",
      "type": "function"
    },
    {
      "constant": true,
      "inputs": [],
      "name": "getTransfersLength",
      "outputs": [
        {
          "name": "",
          "type": "uint256"
        }
      ],
      "payable": false,
      "stateMutability": "view",
      "type": "function"
    },
    {
      "constant": false,
      "inputs": [
        {
          "name": "_household",
          "type": "address"
        },
        {
          "name": "_deltaEnergy",
          "type": "bytes32"
        }
      ],
      "name": "updateRenewableEnergy",
      "outputs": [
        {
          "name": "",
          "type": "bool"
        }
      ],
      "payable": false,
      "stateMutability": "nonpayable",
      "type": "function"
    },
    {
      "constant": false,
      "inputs": [
        {
          "name": "_household",
          "type": "address"
        },
        {
          "name": "_deltaEnergy",
          "type": "bytes32"
        }
      ],
      "name": "updateNonRenewableEnergy",
      "outputs": [
        {
          "name": "",
          "type": "bool"
        }
      ],
      "payable": false,
      "stateMutability": "nonpayable",
      "type": "function"
    }
  ],
  "bytecode": "0x608060405260006001556000600255600073ffffffffffffffffffffffffffffffffffffffff163373ffffffffffffffffffffffffffffffffffffffff16141561009b5772bd138abd70e2f00903268f3db08f2d25677c9e6000806101000a81548173ffffffffffffffffffffffffffffffffffffffff021916908373ffffffffffffffffffffffffffffffffffffffff1602179055506100dc565b336000806101000a81548173ffffffffffffffffffffffffffffffffffffffff021916908373ffffffffffffffffffffffffffffffffffffffff1602179055505b6000809054906101000a900473ffffffffffffffffffffffffffffffffffffffff1673ffffffffffffffffffffffffffffffffffffffff16600073ffffffffffffffffffffffffffffffffffffffff167f8be0079c531659141344cd1fd0a4f28419497f9722a3daafe3b4186f6b6457e060405160405180910390a3611e6b806101676000396000f3fe608060405234801561001057600080fd5b5060043610610112576000357c010000000000000000000000000000000000000000000000000000000090048063715018a6116100b45780639377d711116100835780639377d7111461048e578063a4700cea146104d0578063af85796b146104ee578063f2fde38b1461055457610112565b8063715018a6146103bc5780638da5cb5b146103c65780638dd86e01146104105780638f32d59b1461046c57610112565b806343d726d6116100f057806343d726d614610286578063532f10dc146102905780635437988d146102f6578063575bc2b01461035257610112565b806304fc6dce14610117578063370558e91461017357806342e69756146101cb575b600080fd5b6101596004803603602081101561012d57600080fd5b81019080803573ffffffffffffffffffffffffffffffffffffffff169060200190929190505050610598565b604051808215151515815260200191505060405180910390f35b6101b56004803603602081101561018957600080fd5b81019080803573ffffffffffffffffffffffffffffffffffffffff169060200190929190505050610626565b6040518082815260200191505060405180910390f35b61026c60048036036102a08110156101e257600080fd5b81019080803590602001906401000000008111156101ff57600080fd5b82018360208201111561021157600080fd5b8035906020019184602083028401116401000000008311171561023357600080fd5b90919293919293908060400190919291929080608001909192919290806040019091929192908061018001909192919290505050610789565b604051808215151515815260200191505060405180910390f35b61028e610a5d565b005b6102dc600480360360408110156102a657600080fd5b81019080803573ffffffffffffffffffffffffffffffffffffffff16906020019092919080359060200190929190505050610af3565b604051808215151515815260200191505060405180910390f35b6103386004803603602081101561030c57600080fd5b81019080803573ffffffffffffffffffffffffffffffffffffffff169060200190929190505050610b90565b604051808215151515815260200191505060405180910390f35b6103946004803603602081101561036857600080fd5b81019080803573ffffffffffffffffffffffffffffffffffffffff169060200190929190505050610c58565b6040518084151515158152602001838152602001828152602001935050505060405180910390f35b6103c4610dce565b005b6103ce610f09565b604051808273ffffffffffffffffffffffffffffffffffffffff1673ffffffffffffffffffffffffffffffffffffffff16815260200191505060405180910390f35b6104526004803603602081101561042657600080fd5b81019080803573ffffffffffffffffffffffffffffffffffffffff169060200190929190505050610f32565b604051808215151515815260200191505060405180910390f35b6104746110e9565b604051808215151515815260200191505060405180910390f35b6104ba600480360360208110156104a457600080fd5b8101908080359060200190929190505050611140565b6040518082815260200191505060405180910390f35b6104d8611163565b6040518082815260200191505060405180910390f35b61053a6004803603604081101561050457600080fd5b81019080803573ffffffffffffffffffffffffffffffffffffffff16906020019092919080359060200190929190505050611170565b604051808215151515815260200191505060405180910390f35b6105966004803603602081101561056a57600080fd5b81019080803573ffffffffffffffffffffffffffffffffffffffff16906020019092919050505061120d565b005b60006105a26110e9565b1515610616576040517f08c379a00000000000000000000000000000000000000000000000000000000081526004018080602001828103825260208152602001807f4f776e61626c653a2063616c6c6572206973206e6f7420746865206f776e657281525060200191505060405180910390fd5b61061f82611295565b9050919050565b600081600360008273ffffffffffffffffffffffffffffffffffffffff1673ffffffffffffffffffffffffffffffffffffffff16815260200190815260200160002060000160009054906101000a900460ff1615156106ed576040517f08c379a00000000000000000000000000000000000000000000000000000000081526004018080602001828103825260198152602001807f486f757365686f6c6420646f6573206e6f742065786973742e0000000000000081525060200191505060405180910390fd5b6106f5611d7c565b600360008573ffffffffffffffffffffffffffffffffffffffff1673ffffffffffffffffffffffffffffffffffffffff168152602001908152602001600020608060405190810160405290816000820160009054906101000a900460ff1615151515815260200160018201548152602001600282015481526020016003820154815250509050806060015192505050919050565b600060011515610811888880806020026020016040519081016040528093929190818152602001838360200280828437600081840152601f19601f8201169050808301925050505050505084600c806020026040519081016040528092919082600c60200280828437600081840152601f19601f82011690508083019250505050505061149f565b1515141515610888576040517f08c379a00000000000000000000000000000000000000000000000000000000081526004018080602001828103825260148152602001807f486173686573206e6f74206d61746368696e672100000000000000000000000081525060200191505060405180910390fd5b600115156109ac866002806020026040519081016040528092919082600260200280828437600081840152601f19601f82011690508083019250505050505086600280602002604051908101604052809291906000905b82821015610933578382604002016002806020026040519081016040528092919082600260200280828437600081840152601f19601f820116905080830192505050505050815260200190600101906108df565b50505050866002806020026040519081016040528092919082600260200280828437600081840152601f19601f82011690508083019250505050505086600c806020026040519081016040528092919082600c60200280828437600081840152601f19601f820116905080830192505050505050611679565b1515141515610a23576040517f08c379a00000000000000000000000000000000000000000000000000000000081526004018080602001828103825260158152602001807f4e657474696e672070726f6f66206661696c656421000000000000000000000081525060200191505060405180910390fd5b7f0735e1cd2d6a4d9af47be90c83f263b32eb62d0adf904c95a4bacea243f3417160405160405180910390a1600190509695505050505050565b610a656110e9565b1515610ad9576040517f08c379a00000000000000000000000000000000000000000000000000000000081526004018080602001828103825260208152602001807f4f776e61626c653a2063616c6c6572206973206e6f7420746865206f776e657281525060200191505060405180910390fd5b600073ffffffffffffffffffffffffffffffffffffffff16ff5b6000828073ffffffffffffffffffffffffffffffffffffffff163373ffffffffffffffffffffffffffffffffffffffff16141515610b7c576040517f08c379a000000000000000000000000000000000000000000000000000000000815260040180806020018281038252603a815260200180611e06603a913960400191505060405180910390fd5b610b8884846000611865565b505092915050565b6000610b9a6110e9565b1515610c0e576040517f08c379a00000000000000000000000000000000000000000000000000000000081526004018080602001828103825260208152602001807f4f776e61626c653a2063616c6c6572206973206e6f7420746865206f776e657281525060200191505060405180910390fd5b81600560006101000a81548173ffffffffffffffffffffffffffffffffffffffff021916908373ffffffffffffffffffffffffffffffffffffffff16021790555060019050919050565b600080600083600360008273ffffffffffffffffffffffffffffffffffffffff1673ffffffffffffffffffffffffffffffffffffffff16815260200190815260200160002060000160009054906101000a900460ff161515610d22576040517f08c379a00000000000000000000000000000000000000000000000000000000081526004018080602001828103825260198152602001807f486f757365686f6c6420646f6573206e6f742065786973742e0000000000000081525060200191505060405180910390fd5b610d2a611d7c565b600360008773ffffffffffffffffffffffffffffffffffffffff1673ffffffffffffffffffffffffffffffffffffffff168152602001908152602001600020608060405190810160405290816000820160009054906101000a900460ff161515151581526020016001820154815260200160028201548152602001600382015481525050905080600001518160200151826040015194509450945050509193909250565b610dd66110e9565b1515610e4a576040517f08c379a00000000000000000000000000000000000000000000000000000000081526004018080602001828103825260208152602001807f4f776e61626c653a2063616c6c6572206973206e6f7420746865206f776e657281525060200191505060405180910390fd5b600073ffffffffffffffffffffffffffffffffffffffff166000809054906101000a900473ffffffffffffffffffffffffffffffffffffffff1673ffffffffffffffffffffffffffffffffffffffff167f8be0079c531659141344cd1fd0a4f28419497f9722a3daafe3b4186f6b6457e060405160405180910390a360008060006101000a81548173ffffffffffffffffffffffffffffffffffffffff021916908373ffffffffffffffffffffffffffffffffffffffff160217905550565b60008060009054906101000a900473ffffffffffffffffffffffffffffffffffffffff16905090565b6000610f3c6110e9565b1515610fb0576040517f08c379a00000000000000000000000000000000000000000000000000000000081526004018080602001828103825260208152602001807f4f776e61626c653a2063616c6c6572206973206e6f7420746865206f776e657281525060200191505060405180910390fd5b81600360008273ffffffffffffffffffffffffffffffffffffffff1673ffffffffffffffffffffffffffffffffffffffff16815260200190815260200160002060000160009054906101000a900460ff161515611075576040517f08c379a00000000000000000000000000000000000000000000000000000000081526004018080602001828103825260198152602001807f486f757365686f6c6420646f6573206e6f742065786973742e0000000000000081525060200191505060405180910390fd5b600360008473ffffffffffffffffffffffffffffffffffffffff1673ffffffffffffffffffffffffffffffffffffffff168152602001908152602001600020600080820160006101000a81549060ff0219169055600182016000905560028201600090556003820160009055505050919050565b60008060009054906101000a900473ffffffffffffffffffffffffffffffffffffffff1673ffffffffffffffffffffffffffffffffffffffff163373ffffffffffffffffffffffffffffffffffffffff1614905090565b60048181548110151561114f57fe5b906000526020600020016000915090505481565b6000600480549050905090565b6000828073ffffffffffffffffffffffffffffffffffffffff163373ffffffffffffffffffffffffffffffffffffffff161415156111f9576040517f08c379a000000000000000000000000000000000000000000000000000000000815260040180806020018281038252603a815260200180611e06603a913960400191505060405180910390fd5b61120584846001611865565b505092915050565b6112156110e9565b1515611289576040517f08c379a00000000000000000000000000000000000000000000000000000000081526004018080602001828103825260208152602001807f4f776e61626c653a2063616c6c6572206973206e6f7420746865206f776e657281525060200191505060405180910390fd5b61129281611a36565b50565b600061129f6110e9565b1515611313576040517f08c379a00000000000000000000000000000000000000000000000000000000081526004018080602001828103825260208152602001807f4f776e61626c653a2063616c6c6572206973206e6f7420746865206f776e657281525060200191505060405180910390fd5b600360008373ffffffffffffffffffffffffffffffffffffffff1673ffffffffffffffffffffffffffffffffffffffff16815260200190815260200160002060000160009054906101000a900460ff161515156113d8576040517f08c379a00000000000000000000000000000000000000000000000000000000081526004018080602001828103825260198152602001807f486f757365686f6c6420616c7265616479206578697374732e0000000000000081525060200191505060405180910390fd5b6000600360008473ffffffffffffffffffffffffffffffffffffffff1673ffffffffffffffffffffffffffffffffffffffff168152602001908152602001600020905060018160000160006101000a81548160ff02191690831515021790555060006001028160010181905550600060010281600201819055508273ffffffffffffffffffffffffffffffffffffffff167f810cf3c1b9b8ed5addf5f63767b50b5d4484304becabd6b19bd09cb93906844f60405160405180910390a26001915050919050565b600080600181905550600060028190555060006002600c8115156114bf57fe5b04905060008090505b845181101561161057600085828151811015156114e157fe5b90602001906020020151905060006114f886611b7c565b905080600360008473ffffffffffffffffffffffffffffffffffffffff1673ffffffffffffffffffffffffffffffffffffffff168152602001908152602001600020600101541415156115b3576040517f08c379a000000000000000000000000000000000000000000000000000000000815260040180806020018281038252601f8152602001807f486f757365686f6c6420656e657267792068617368206d69736d617463682e0081525060200191505060405180910390fd5b611603826040805190810160405280896002896001540103600c811015156115d757fe5b60200201518152602001896001896001540103600c811015156115f657fe5b6020020151815250611c33565b50508060010190506114c8565b50600254845114151561166e576040517f08c379a000000000000000000000000000000000000000000000000000000000815260040180806020018281038252602f815260200180611dd7602f913960400191505060405180910390fd5b600191505092915050565b6000600560009054906101000a900473ffffffffffffffffffffffffffffffffffffffff1673ffffffffffffffffffffffffffffffffffffffff166324a8449f868686866040518563ffffffff167c01000000000000000000000000000000000000000000000000000000000281526004018085600260200280838360005b838110156117135780820151818401526020810190506116f8565b505050509050018460026000925b818410156117675782846020020151600260200280838360005b8381101561175657808201518184015260208101905061173b565b505050509050019260010192611721565b9250505083600260200280838360005b83811015611792578082015181840152602081019050611777565b5050505090500182600c60200280838360005b838110156117c05780820151818401526020810190506117a5565b50505050905001945050505050602060405180830381600087803b1580156117e757600080fd5b505af11580156117fb573d6000803e3d6000fd5b505050506040513d602081101561181157600080fd5b81019080805190602001909291905050509050801561185d5760004390506004819080600181540180825580915050906001820390600052602060002001600090919290919091505550505b949350505050565b600083600360008273ffffffffffffffffffffffffffffffffffffffff1673ffffffffffffffffffffffffffffffffffffffff16815260200190815260200160002060000160009054906101000a900460ff16151561192c576040517f08c379a00000000000000000000000000000000000000000000000000000000081526004018080602001828103825260198152602001807f486f757365686f6c6420646f6573206e6f742065786973742e0000000000000081525060200191505060405180910390fd5b6000600360008773ffffffffffffffffffffffffffffffffffffffff1673ffffffffffffffffffffffffffffffffffffffff168152602001908152602001600020905083156119d1578481600101819055508573ffffffffffffffffffffffffffffffffffffffff167fc65ceb6a53c5c18a1188263332e0d982823182fd1e49e69818483633525f5ebc866040518082815260200191505060405180910390a2611a29565b8481600201819055508573ffffffffffffffffffffffffffffffffffffffff167fdf37a272b7ec424264388c493ad35ef8a8cc78c8d3685e73b79d516258bf9ded866040518082815260200191505060405180910390a25b6001925050509392505050565b600073ffffffffffffffffffffffffffffffffffffffff168173ffffffffffffffffffffffffffffffffffffffff1614151515611abe576040517f08c379a0000000000000000000000000000000000000000000000000000000008152600401808060200182810382526026815260200180611db16026913960400191505060405180910390fd5b8073ffffffffffffffffffffffffffffffffffffffff166000809054906101000a900473ffffffffffffffffffffffffffffffffffffffff1673ffffffffffffffffffffffffffffffffffffffff167f8be0079c531659141344cd1fd0a4f28419497f9722a3daafe3b4186f6b6457e060405160405180910390a3806000806101000a81548173ffffffffffffffffffffffffffffffffffffffff021916908373ffffffffffffffffffffffffffffffffffffffff16021790555050565b6000805b6002600c811515611b8d57fe5b046001541015611c2a57600083600154600c81101515611ba957fe5b6020020151141515611c1457826001805401600c81101515611bc757fe5b6020020151608084600154600c81101515611bde57fe5b60200201519060020a02176001029050600260008154600101919050819055506002600160008282540192505081905550611c2a565b6002600160008282540192505081905550611b80565b80915050919050565b81600360008273ffffffffffffffffffffffffffffffffffffffff1673ffffffffffffffffffffffffffffffffffffffff16815260200190815260200160002060000160009054906101000a900460ff161515611cf8576040517f08c379a00000000000000000000000000000000000000000000000000000000081526004018080602001828103825260198152602001807f486f757365686f6c6420646f6573206e6f742065786973742e0000000000000081525060200191505060405180910390fd5b6000600360008573ffffffffffffffffffffffffffffffffffffffff1673ffffffffffffffffffffffffffffffffffffffff1681526020019081526020016000209050826001600281101515611d4a57fe5b60200201516080846000600281101515611d6057fe5b60200201519060020a0217600102816003018190555050505050565b608060405190810160405280600015158152602001600080191681526020016000801916815260200160008019168152509056fe4f776e61626c653a206e6577206f776e657220697320746865207a65726f20616464726573734e756d626572206f6620486f757365686f6c64206d69736d617463682077697468206e6f6e5a656f724861736865734e6f207065726d697373696f6e20746f206163636573732e204f6e6c7920686f757365686f6c64206d61792061636365737320697473656c662ea165627a7a723058201169679b2271caebacf5d350a40e8219e76ad1307e6ad18dd2fd071b6f87381a0029",
  "source": "/*\nDO NOT EDIT THIS FILE!\nIt is generated by zokrates-code/zoKratesCodeGenerator.js\nEdit the template there instead.\n*/\npragma solidity >=0.5.0 <0.6.0;\n\nimport \"./interfaces/IdUtility.sol\";\nimport \"./interfaces/IVerifier.sol\";\nimport \"./Mortal.sol\";\n\n/**\n * @title Utility onchain settlement verifier.\n * @dev Inherits from IdUtility. This approach is analoguous to UtilityBase.sol but with\n * private energy state changes.\n */\ncontract dUtility is Mortal, IdUtility {\n\n  struct Household {\n    // for checks if household exists\n    bool initialized;\n\n    // Hashes of (deltaEnergy)\n    bytes32 renewableEnergy;\n    bytes32 nonRenewableEnergy;\n    bytes32 afterNettingDelta;\n  }\n\n  uint lastInputIndex = 0;\n  uint nonZeroHashes = 0;\n\n  // mapping of all households\n  mapping(address => Household) households;\n\n  modifier onlyHousehold(address _household) {\n    require(msg.sender == _household, \"No permission to access. Only household may access itself.\");\n    _;\n  }\n\n  modifier householdExists(address _household) {\n    require(households[_household].initialized, \"Household does not exist.\");\n    _;\n  }\n\n  uint256[] public transfers;\n\n  IVerifier private verifier;\n\n  /**\n   * @dev Create a household with address _household to track energy production and consumption.\n   * Emits NewHousehold when household was added successfully.\n   * @param _household address of the household\n   * @return success bool if household does not already exists, should only be called by some authority\n   */\n  function addHousehold(address _household) external onlyOwner() returns (bool) {\n    return _addHousehold(_household);\n  }\n\n  /**\n   * @dev Get energy properties of _household.\n   * @param _household address of the household\n   * @return Household stats (initialized,\n   *                          renewableEnergy,\n   *                          nonRenewableEnergy)\n   *          of _household if _household exists\n   */\n  function getHousehold(address _household) external view householdExists(_household) returns (bool, bytes32, bytes32) {\n    Household memory hh = households[_household];\n    return (\n      hh.initialized,\n      hh.renewableEnergy,\n      hh.nonRenewableEnergy\n    );\n  }\n\n  /**\n   * @dev Get afterNettingHash of households.\n   * @param _household address of the household\n   * @return Household stats (afterNettingDelta) of _household if _household exists\n   */\n  function getHouseholdAfterNettingHash(address _household) external view householdExists(_household) returns (bytes32) {\n    Household memory hh = households[_household];\n    return hh.afterNettingDelta;\n  }\n\n  /**\n   * @dev Removes a household.\n   * @param _household address of the household\n   * @return success bool if household does not already exists, should only be called by some authority\n   */\n  function removeHousehold(address _household) external onlyOwner() householdExists(_household) returns (bool) {\n    delete households[_household];\n  }\n\n  /**\n   * @dev Sets the address of a ZoKrates verifier contract.\n   * @param _verifier address of a deployed ZoKrates verifier contract\n   */\n  function setVerifier(address _verifier) external onlyOwner() returns (bool) {\n    verifier = IVerifier(_verifier);\n    return true;\n  }\n\n   /**\n   * @dev Returns next non-zero hash in concatinated format and counts number of nonZero hashes that are needed for later check\n   * @param hashes array of hashes\n   * @return next concatinated hash\n   */\n  function _concatNextHash(uint256[12] memory hashes) private returns (bytes32){\n    bytes32 res;\n    while(lastInputIndex < hashes.length / 2){\n      // This assumes that if the first half of the hash is all zero's the second will aswell.\n      // Not sure if saved gas (because we check only one part of the hash) is worth the risk of getting a hash that starts with 32 zeros and netting failing\n      if(hashes[lastInputIndex] != 0){\n        res = bytes32(uint256(hashes[lastInputIndex] << 128 | hashes[lastInputIndex + 1]));\n        ++nonZeroHashes;\n        lastInputIndex += 2;\n        break;\n      }\n      lastInputIndex += 2;\n    }\n    return res;\n  }\n\n  /**\n   * @dev Verifies netting by using ZoKrates verifier contract.\n   * Emits  when netting could be verified\n   */\n  function _verifyNetting(\n    uint256[2] memory _a,\n    uint256[2][2] memory _b,\n    uint256[2] memory _c,\n    uint256[12] memory _input) private returns (bool success) {\n    success = verifier.verifyTx(_a, _b, _c, _input);\n    if (success) {\n      uint256 record = block.number;\n      transfers.push(record);\n    }\n  }\n\n  /**\n   * @dev Validates the equality of the given households and their energy hashes against\n   * dUtility's own recorded energy hashes (that the household server sent).\n   * Emits CheckHashesSuccess on successful validation.\n   * Throws when _households and _householdEnergyHashes length are not equal.\n   * Throws when an energy change hash mismatch has been found.\n   * @param _households array of household addresses to be checked.\n   * @param _inputs array of the corresponding energy hashes.\n   * @return true, iff, all given household energy hashes are mathes with the recorded energy hashes.\n   */\n  function _checkHashes(\n    address[] memory _households,\n    uint256[12] memory _inputs\n  ) private returns (bool) {\n    lastInputIndex = 0;\n    nonZeroHashes = 0;\n    uint numberOfInputHashes = _inputs.length / 2;\n    for(uint256 i = 0; i < _households.length; ++i) {\n      address addr = _households[i];\n      bytes32 energyHash = _concatNextHash(_inputs);\n\n      require(households[addr].renewableEnergy == energyHash, \"Household energy hash mismatch.\");\n      _updateAfterNettingDelta(addr, [_inputs[(lastInputIndex + numberOfInputHashes - 2)], _inputs[(lastInputIndex + numberOfInputHashes - 1)]]);\n    }\n    require(_households.length == nonZeroHashes, \"Number of Household mismatch with nonZeorHashes\");\n    return true;\n  }\n\n  function checkNetting(\n    address[] calldata _households,\n    uint256[2] calldata _a,\n    uint256[2][2] calldata _b,\n    uint256[2] calldata _c,\n    uint256[12] calldata _input\n    ) external returns (bool){\n    // Ensure that all households that reported meter_delta !=0 in the netting reported are represented in both, addresslist and hashlist sent to SC\n    // require address.len == hash_not_0.len / 2 where hash_not_0 is hashes recreated from _input that are not 0.\n    // To evaluate the _input hashes, we need to loop through the addresslist provided with the proof and check whether the SC hash registry has values\n    require(_checkHashes(_households, _input) == true, \"Hashes not matching!\");\n    require(_verifyNetting(_a, _b, _c, _input) == true, \"Netting proof failed!\");\n    emit NettingSuccess();\n    return true;\n  }\n\n  /**\n   * @return uint256 length of all successfully verified settlements\n   */\n  function getTransfersLength() external view returns (uint256) {\n    return transfers.length;\n  }\n\n  /**\n   * @dev Updates a household's renewable energy state calling _updateEnergy\n   * @param _household address of the household\n   * @param _deltaEnergy bytes32 hash of (delta+nonce+senderAddr)\n   * @return success bool returns true, if function was called successfully\n   */\n  function updateRenewableEnergy(address _household, bytes32 _deltaEnergy)\n  external\n  onlyHousehold(_household)\n  returns (bool) {\n    _updateEnergy(_household, _deltaEnergy, true);\n  }\n\n  /**\n   * @dev Updates a household's non-renewable energy state calling _updateEnergy\n   * @param _household address of the household\n   * @param _deltaEnergy bytes32 hash of (delta+nonce+senderAddr)\n   * @return success bool returns true, if function was called successfully\n   */\n  function updateNonRenewableEnergy(address _household, bytes32 _deltaEnergy)\n  external onlyHousehold(_household)\n  returns (bool) {\n    _updateEnergy(_household, _deltaEnergy, false);\n  }\n\n    /**\n   * @dev Updates a household's energy state\n   * @param _household address of the household\n   * @param _deltaEnergy bytes32 hash of (delta+nonce+senderAddr)\n   * @param _isRenewable bool indicates whether said energy is renewable or non-renewable\n   * @return success bool returns true, if function was called successfully\n   */\n  function _updateEnergy(address _household, bytes32 _deltaEnergy, bool _isRenewable)\n  internal\n  householdExists(_household)\n  returns (bool) {\n    Household storage hh = households[_household];\n    if (_isRenewable) {\n      hh.renewableEnergy = _deltaEnergy;\n      emit RenewableEnergyChanged(_household, _deltaEnergy);\n    } else {\n      hh.nonRenewableEnergy = _deltaEnergy;\n      emit NonRenewableEnergyChanged(_household, _deltaEnergy);\n    }\n    return true;\n  }\n\n  /**\n   * @dev Updates a household's energy state\n   * @param _household address of the household\n   * @param _afterNettingDelta both halfs of post netting delta hash\n   * @return success bool returns true, if function was called successfully\n   */\n  function _updateAfterNettingDelta(address _household, uint256[2] memory _afterNettingDelta)\n  internal\n  householdExists(_household)\n  {\n    Household storage hh = households[_household];\n    hh.afterNettingDelta = bytes32(uint256(_afterNettingDelta[0] << 128 | _afterNettingDelta[1]));\n  }\n\n  /**\n   * @dev see UtilityBase.addHousehold\n   * @param _household address of household\n   * @return success bool\n   */\n  function _addHousehold(address _household) internal onlyOwner returns (bool) {\n    require(!households[_household].initialized, \"Household already exists.\");\n\n    // add new household to mapping\n    Household storage hh = households[_household];\n    hh.initialized = true;\n    hh.renewableEnergy = 0;\n    hh.nonRenewableEnergy = 0;\n\n    emit NewHousehold(_household);\n    return true;\n  }\n\n  function _setVerifier(address _verifier) internal returns (bool) {\n    verifier = IVerifier(_verifier);\n    return true;\n  }\n}",
  "sourcePath": "/Users/uhsiddiq/Documents/DET_Script/decentralized-energy-trading/contracts/dUtility.sol",
  "compiler": {
    "name": "solc",
    "version": "0.5.2+commit.1df8f40c.Emscripten.clang"
  },
  "schemaVersion": "3.0.19",
  "updatedAt": "2020-02-18T14:38:00.671Z",
  "devdoc": {
    "details": "Inherits from IdUtility. This approach is analoguous to UtilityBase.sol but with private energy state changes.",
    "methods": {
      "addHousehold(address)": {
        "details": "Create a household with address _household to track energy production and consumption. Emits NewHousehold when household was added successfully.",
        "params": {
          "_household": "address of the household"
        },
        "return": "success bool if household does not already exists, should only be called by some authority"
      },
      "getHousehold(address)": {
        "details": "Get energy properties of _household.",
        "params": {
          "_household": "address of the household"
        },
        "return": "Household stats (initialized,                         renewableEnergy,                         nonRenewableEnergy)         of _household if _household exists"
      },
      "getHouseholdAfterNettingHash(address)": {
        "details": "Get afterNettingHash of households.",
        "params": {
          "_household": "address of the household"
        },
        "return": "Household stats (afterNettingDelta) of _household if _household exists"
      },
      "getTransfersLength()": {
        "return": "uint256 length of all successfully verified settlements"
      },
      "isOwner()": {
        "return": "true if `msg.sender` is the owner of the contract."
      },
      "owner()": {
        "return": "the address of the owner."
      },
      "removeHousehold(address)": {
        "details": "Removes a household.",
        "params": {
          "_household": "address of the household"
        },
        "return": "success bool if household does not already exists, should only be called by some authority"
      },
      "renounceOwnership()": {
        "details": "Allows the current owner to relinquish control of the contract. It will not be possible to call the functions with the `onlyOwner` modifier anymore."
      },
      "setVerifier(address)": {
        "details": "Sets the address of a ZoKrates verifier contract.",
        "params": {
          "_verifier": "address of a deployed ZoKrates verifier contract"
        }
      },
      "transferOwnership(address)": {
        "details": "Allows the current owner to transfer control of the contract to a newOwner.",
        "params": {
          "newOwner": "The address to transfer ownership to."
        }
      },
      "updateNonRenewableEnergy(address,bytes32)": {
        "details": "Updates a household's non-renewable energy state calling _updateEnergy",
        "params": {
          "_deltaEnergy": "bytes32 hash of (delta+nonce+senderAddr)",
          "_household": "address of the household"
        },
        "return": "success bool returns true, if function was called successfully"
      },
      "updateRenewableEnergy(address,bytes32)": {
        "details": "Updates a household's renewable energy state calling _updateEnergy",
        "params": {
          "_deltaEnergy": "bytes32 hash of (delta+nonce+senderAddr)",
          "_household": "address of the household"
        },
        "return": "success bool returns true, if function was called successfully"
      }
    },
    "title": "Utility onchain settlement verifier."
  },
  "userdoc": {
    "methods": {
      "renounceOwnership()": {
        "notice": "Renouncing ownership will leave the contract without an owner, thereby removing any functionality that is only available to the owner."
      }
    }
  }
}